:020000041000EA
:10100000480500201910001000000000A310001077
:1010100000040100000100001249134A134B00F0C4
:101020001AF8134880471349134A144B00F013F879
:101030001349144A144B00F00EF81449144A0020C6
:10104000521A02DD043A8850FCDC124880471248EC
:101050008047124880479B1A03DD043BC858D05094
:10106000FBDC70473CA500100C0000204401002070
:10107000196B001074A600104805002028070020F6
:1010800054A8001028070020901900209019002073
:10109000F43D0020A1100010899E00104968001046
:1010A0007047FEE710B582B06B46354ADA80354BA3
:1010B000354A1A60354B0121C022520099508020D8
:1010C0001A58334C22401A508022120231480260D2
:1010D00031480260812292009950304A8423802155
:1010E000C904D1501DE029498122920088588023EB
:1010F0009B0003438B50294AFC235B00D358002BF1
:10110000F9D0C0239B00D358009380231B02214AAF
:101110001360214A13606B469A1DDB88013B9BB22A
:1011200013806B4606331B889BB2002BDBD1009BE0
:101130000023009305E080231B02164A1360164A21
:101140001360174B1B6C1B0FF5D1104B80215858A7
:10115000C022920202435A5000228531FF315A5078
:1011600084395A500D4B9532FF328039FF399950EE
:1011700083315A580B4802405A5002B010BDC04645
:1011800050460000BC4003480004103F00000348E4
:10119000FFFFFC7FE0400348E440034800040348AD
:1011A00000400348FFFFFFFB00B583B00023124A55
:1011B0001360124A13600321114806F0F5F9114932
:1011C00080228858104B03438B501423019308E06E
:1011D000019B013B019380231B02074A1360074ACE
:1011E0001360019B002BF3D1FFF75CFF0021044843
:1011F00006F0DAF903B000BDE0400348E4400348DC
:10120000000403480000034800000180F8B552497B
:10121000524D280006F040F95149524E300006F078
:1012200083F95149514C200006F07EF9032130002A
:1012300006F0BAF90321200006F0B6F9FFF7B4FF73
:101240004B49280006F0E6F94A49200006F03EFA2C
:1012500082225200A1588023DB000B43A350434A53
:1012600084235B00D3589B06F9D5140082235B00CE
:10127000D25803208243E250E25801210A43E2504F
:10128000384DEA588243EA50EA580A43EA503A4B4A
:101290001A6888235B00E250384A1268E250384AE4
:1012A0000021200006F04AFA364A0121200006F00B
:1012B00045FA354A0021280006F040FA334A012158
:1012C000280006F03BFA0021280006F06DF9002105
:1012D000200006F069F900220121280006F06CF9CF
:1012E0000021280006F07AF9200006F070F90321A9
:1012F000200006F059F90321280006F055F9B02323
:10130000234AE2500422FF32EA50224A06212000FA
:1013100006F014FA114EC2277F00F35940221343FE
:10132000F3511D4A0721200006F008FAF3598024E2
:101330002343F351194A0721280006F0FFF9C02280
:101340005200B3582343B3508432B15880239B00DA
:101350000B43B350F8BDC046780500200000034899
:10136000B005002000040348E405002000080348FD
:101370000C06002000060020F8050020FC050020D7
:10138000C4050020D405002090050020A005002001
:1013900003040000680500204805002058050020CF
:1013A00010B500F007F800F02BFA10BD10B5FFF7EC
:1013B000F7FF10BDF0B5DE4657464E464546E0B550
:1013C00085B0DE4E0021300005F014FD80235B0067
:1013D0009846F360DA49DB4F380005F025FD02231B
:1013E0009A46FB6304247C638021C904300005F025
:1013F00013FD07233361D44A0121380005F055FD60
:10140000D24A0221380005F050FDD14A03213800AC
:1014100005F04BFD01220121380005F02BFD0122D2
:101420000221380005F07AFDA4257B5923437B5126
:1014300001218B46F16000243C67F960C549C64F25
:10144000380005F008FDC54B7B638021090530009D
:1014500005F0E2FC70213161C14A6F39380005F0B6
:1014600024FDC04A0221380005F01FFDBE4A0321B9
:10147000380005F01AFD0121380005F00FFD504637
:10148000F0603C675846F860B849B94F380005F03D
:10149000CBFCA023FB63B74B7B6380218905300025
:1014A00005F0BAFCE020C0013061B34A01213800E8
:1014B00005F0FBFCB14A0221380005F0F6FCB04A09
:1014C0000321380005F0F1FC0822F2603C675E461B
:1014D000FE60A026F6050021300005F04BFD4746D2
:1014E000F760A849A84F380005F056FDD2239B00AD
:1014F0009846FB637C64D223DB00994619003800D0
:1015000005F0B5FD8021C904300005F060FD07231A
:1015100033619E4A0121380005F076FD9C4A022184
:10152000380005F071FD9B4A0321380005F06CFD81
:1015300001220121380005F053FD9749380005F0DC
:10154000BDFD3C679549964F380005F025FD4346A3
:10155000FB637C644946380005F089FD802109055C
:10156000300005F034FD702131618E4A6F3938004A
:1015700005F04AFD8C4A0221380005F045FD8B4AF2
:101580000321380005F040FD01220121380005F05B
:1015900027FD8749380005F091FD3C678549864F56
:1015A000380005F0F9FC4146F9637C64494638008F
:1015B00005F05DFD80214905300005F008FDE023C0
:1015C000DB0033617D4A0121380005F01DFD7C4AB6
:1015D0000221380005F018FD7A4A0321380005F091
:1015E00013FD01220121380005F0FAFC764938008C
:1015F00005F064FD3C677549754F380005F0CCFC7B
:101600004146F96379644946380005F030FD802190
:101610008905300005F0DBFCE020C00130616D4A37
:101620000121380005F0F0FC6B4A0221380005F07A
:10163000EBFC6A4A0321380005F0E6FC0122012197
:10164000380005F0CDFC03220021380005F012FD22
:1016500002220121380005F00DFD0022042138008E
:1016600005F008FD01220321380005F003FD7B5938
:10167000584603437B517B59504603437B517B596A
:10168000102213437B517B5908210B437B513C674C
:10169000534D280005F056FD2B680326B3432B60FD
:1016A0005049280005F05AFD4F49280005F060FD1B
:1016B00000220221280005F066FD6B6F042213430F
:1016C0006B674A494A4D0022280005F067FDEB6927
:1016D00050229343EB61EB69493A93433343EB6107
:1016E000EA6B444B1A4080231B011343EB63424BCC
:1016F0002B610C360296019400943A2300220021BB
:10170000280005F04BFE1F2305220021280005F0CC
:1017100075FE1F2305222021280005F059FE2B6CA1
:10172000B343524613432B64344806F047F805B0E0
:10173000F0BCBB46B246A946A046F0BD0000044836
:10174000309F001000010448389F00103C9F00109B
:10175000409F00104C9F001000020448FFFF000053
:10176000549F0010589F00105C9F0010F49F0010C1
:1017700000040448FF040000FC9F001000A00010BB
:1017800004A00010609F0010000100507C9F00101A
:10179000809F0010849F0010709F0010889F001091
:1017A00000020050A49F0010A89F0010AC9F0010E2
:1017B000989F0010B09F001000030050CC9F0010B5
:1017C000D09F0010D49F0010C09F0010D89F001021
:1017D00000040050E89F0010EC9F0010F09F0010E4
:1017E00000000150489F0010449F0010249F0010EB
:1017F00000020048FFE0FFFF2181000008A0001068
:1018000010B57F4A7F4C0021200005F0D5F9002259
:101810000021200005F059FC7B4A0A21200005F038
:10182000CBF900220A21200005F04FFC774A0D2158
:10183000200005F0C1F900220D21200005F045FC33
:10184000734A0121200005F0B7F900220121200090
:1018500005F03BFC6F4A0221200005F0ADF90022A3
:101860000221200005F031FC6B4A0321200005F025
:10187000A3F900220321200005F027FC674A042178
:10188000200005F099F900220421200005F01DFC3C
:10189000634A0521200005F08FF900220521200070
:1018A00005F013FC5F4A0621200005F085F90022AF
:1018B0000621200005F009FC5B4A0721200005F005
:1018C0007BF900220721200005F0FFFB574A082181
:1018D000200005F071F900220821200005F0F5FB39
:1018E000534A0921200005F067F900220921200050
:1018F00005F0EBFB4F4A504C0021200005F05CF94D
:1019000000220021200005F0E0FB4C4A01212000CC
:1019100005F052F900220121200005F0D6FB484ACB
:101920000221200005F048F900220221200005F0E4
:10193000CCFB444A0321200005F03EF9002203219C
:10194000200005F0C2FB404A0521200005F034F9D3
:1019500000220521200005F0B8FB3C4A3C4C0A213E
:10196000200005F029F900220A21200005F0ADFB36
:10197000384A0B21200005F01FF900220B2120001E
:1019800005F0A3FB344A0221200005F015F90022DE
:101990000221200005F099FB304A0421200005F0C7
:1019A0000BF900220421200005F08FFB2C4A0521B1
:1019B000200005F001F900220521200005F085FB3B
:1019C000284A0621200005F0F7F800220621200011
:1019D00005F07BFB244A0821200005F0EDF80022E9
:1019E0000821200005F071FB204A0921200005F0A4
:1019F000E3F800220921200005F067FB10BDC04676
:101A00008CA00010000004404CA0001074A0001036
:101A100094A000109CA00010A4A000107CA00010B6
:101A20006CA0001044A000103CA00010ACA000105E
:101A3000B4A0001064A00010000104405CA00010DD
:101A400054A00010BCA0001084A000102CA0001016
:101A50000002044034A00010CCA0001014A000101C
:101A6000C4A00010D4A000101CA0001024A00010DE
:101A700030B585B001A8044B020032CB32C205F06C
:101A80008FF905B030BDC046DCA0001010B5FFF7DF
:101A90008DFC002010BD70B505000E001C0004ABCD
:101AA00018888D421FD395421ED2521A91B2A0427D
:101AB0000CD2AE1BB6B2201A80B270434B08C018CD
:101AC00005F010FB80B2201A80B20DE0AD1BADB264
:101AD000001B80B268434B08C01805F003FB80B2BE
:101AE000001980B200E0200070BD70B51D0004AB8D
:101AF0001B7888421DD990421DD2AB420CD2441AA9
:101B0000E4B2E81AC0B26043511AC9B205F0FAFA59
:101B1000C0B2281AC0B20DE0441AE4B2581BC0B2D9
:101B20006043511AC9B205F0EDFAC0B24019C0B213
:101B300000E0280070BD1800FCE7030008008B429D
:101B400000D21800704710B504000F2A13D81023D4
:101B50009B1A43434A439B1808331B0998B281429E
:101B60000AD1844202D9013080B205E0844203D216
:101B7000013880B200E0002010BD0000002803D032
:101B8000044B20225A607047024B802292035A6015
:101B9000F9E7C04600010440F0B5DE4657464E4620
:101BA0004546E0B587B0F84CE28C01922C23E05C0E
:101BB0005043642105F096FAF44B1880227EF44BD2
:101BC0001A70638BB722A65C9B1BF24A1380C0235A
:101BD000E25CF14B1A708423E75CF04B1F707A08CB
:101BE000EF4B1A707E23E35C002B04D18022A35CB0
:101BF000002B00D168E2E44C236B9B46E949181C9A
:101C000006F0C4F905F022FEE74B1880636B9A4694
:101C1000E449181C06F0BAF905F018FEE34B1880E9
:101C2000A36B9946DF49181C06F0B0F905F00EFECB
:101C3000DF4B1880E36B9846DA49181C06F0A6F9CA
:101C400005F004FEDB4B1880236CD6490293181C68
:101C500006F09CF905F0FAFDD74B1880626CD1496B
:101C60000392101C06F092F905F0F0FDD34B18809A
:101C7000E56DCC49281C06F089F905F0E7FDD04B4D
:101C800018802823E05C06F08FFC041CCD495846E0
:101C900006F07CF9011C201C06F078F905F0D6FD51
:101CA000C94B1880C749504606F070F9011C201C2A
:101CB00006F06CF905F0CAFDC44B1880C1494846CE
:101CC00006F064F9011C201C06F060F905F0BEFD69
:101CD000BF4B1880BB49404606F058F9011C201C38
:101CE00006F054F905F0B2FDBA4B1880B5490298D8
:101CF00006F04CF9011C201C06F048F905F0A6FD81
:101D0000B54B1880AF49039806F040F9011C201C20
:101D100006F03CF905F09AFDB04B1880A949281C43
:101D200006F034F9011C201C06F030F905F08EFD98
:101D3000AB4B1880944C2823E35C9800C0184000FB
:101D400006F032FCA74906F021F905F07FFDA64B0D
:101D50001880B623E55CAB00ED186D00A34B1D8029
:101D6000A34B1D804F2D00D982E2A24B50221A8036
:101D7000854BD3229B5C002B00D17CE29E4BD23A58
:101D80001A709E4B01321A709D4B0B321A709D4B8C
:101D9000093A1A709C4B06321A709C4B043A1A701E
:101DA0009B4B01321A709B4B043A1A709A4B0632C5
:101DB0001A709A4B1A70744CB823E25C984B1A70E4
:101DC000984B1F70BD23E25C974B1A706923E25C4D
:101DD000964B1A708723E25C954B1A706823E25C7D
:101DE000944B1A706C23E25C934B1A70A27D934B58
:101DF0001A706423E25C924B1A70BC22A25C5A7087
:101E00007023E25C8F4B1A707123E25C8E4B1A7068
:101E10006D23E25C8D4B1A70E27D8D4B1A702B2383
:101E2000E05C019B5843642105F05CF9574B188036
:101E30002923E25C874B1A70874B1E80874B1E80DC
:101E400032003C3A864B1A80864B1E80227D864BA0
:101E50001A706223E25C854B1A707622A25C5A707B
:101E6000C823E25C824B1A70CD23E25C814B1A706E
:101E7000CE22A25C5A70804B1D705E4A12885A7046
:101E8000C423E25C7D4B1A706B23E25C7C4B1A70BE
:101E90008F23E25C7B4B1A709022A25C5A709122D5
:101EA000A25C9A709222A25CDA709322A25C1A71F0
:101EB0009422A25C5A718923E25C734B1A708A22C5
:101EC000A25C5A708B22A25C9A708C22A25CDA709F
:101ED0008D22A25C1A718E22A25C5A716B4B002279
:101EE0001A709621665A7608F6B25E700231655A0B
:101EF0006D08EDB29D700231605A4008C0B2D870D2
:101F00000231615A4908C9B219715A719E27E75DB9
:101F10009F719F27E75DDF71A027E75D1F72A127F3
:101F2000E75D5F729A72A227E75DDF72A327E75D24
:101F30001F73A427E75D5F73A527E75D9F73DA73BF
:101F4000A627E75D1F74A727E75D5F74A827E75DF5
:101F50009F74A927E75DDF741A755E759D75D87546
:101F600019765A76B121615C9976B221615CD97695
:101F7000B321615C1977B421615C59779A77AA2102
:101F8000615CD977AB2183E018060020143A002069
:101F9000E13B00202E3A0020803B002083390020C6
:101FA000823900200000C8429A3900209839002068
:101FB0009639002094390020923900209039002071
:101FC0008E39002000002041743900207239002031
:101FD000703900206E3900206C3900206A390020E9
:101FE00068390020333383407A390020803900205B
:101FF0007C3900207E390020893900208C3900206E
:1020000085390020863900208B390020883900204E
:10201000843900208A3900208D390020873900203A
:10202000853B0020AA3B0020AD3B0020203C002047
:10203000863B00202C3C0020363C0020833B0020C7
:10204000643C0020CE3B0020CF3B0020D03B002052
:10205000843B0020DB3B0020243A0020263A00206D
:102060002A3A0020283A0020373C00206C3C00200F
:10207000C93B0020343C0020983B0020253C002038
:10208000263C00209C3B0020A43B0020EC3B002091
:10209000605C8B3958548C31605C8B3958548C316E
:1020A000605C8B39585401315A5401315A54013112
:1020B0005A5401315A5401315A5407B0F0BCBB464E
:1020C000B246A946A046F0BD7A4C236B9846181C30
:1020D00007F09CFC0022784B06F0EEFD05F0CEFBED
:1020E000764B1880636B0293181C07F08FFC00225C
:1020F000714B06F0E1FD05F0C1FB714B1880A26B3E
:1021000091467049101C05F041FF05F09FFB6E4B96
:102110001880A26C92466B49101C05F037FF05F041
:1021200095FB6A4B1880E26C93466649101C05F0DB
:102130002DFF05F08BFB664B1880226D61490392E1
:10214000101C05F023FF05F081FB624B1880616DC8
:102150000D1C5C490495281C05F018FF05F076FB62
:102160005D4B1880A16D0D1C56490595281C05F086
:102170000DFF05F06BFB594B1880E56D5149281C8C
:1021800005F004FF05F062FB554B18802823E05C46
:1021900006F00AFA041C5349404605F0F7FE011CFC
:1021A000201C05F0F3FE05F051FB4F4B18804D4904
:1021B000029805F0EBFE011C201C05F0E7FE05F07F
:1021C00045FB4A4B18804749484605F0DFFE011C95
:1021D000201C05F0DBFE05F039FB454B188041491A
:1021E000504605F0D3FE011C201C05F0CFFE05F083
:1021F0002DFB404B18803B49584605F0C7FE011C9B
:10220000201C05F0C3FE05F021FB3B4B188035492F
:10221000039805F0BBFE011C201C05F0B7FE05F07D
:1022200015FB364B18802F49049805F0AFFE011CB2
:10223000201C05F0ABFE05F009FB314B1880294945
:10224000059805F0A3FE011C201C05F09FFE05F07B
:10225000FDFA2C4B18802349281C05F097FE011C21
:10226000201C05F093FE05F0F1FA274B188061E57C
:10227000264B1D807CE5264B01221A70254B01322E
:102280001A70254B01321A70244B01321A70244BFC
:1022900001321A70234B01321A70234B01321A702B
:1022A000224B01321A70224B01321A70214B1A70E4
:1022B00081E5C04618060020000059409E390020E4
:1022C0009C3900200000C8429A390020983900202B
:1022D000963900209439002092390020903900204E
:1022E0008E39002000002041783900207639002006
:1022F0007439002072390020703900206E390020B6
:102300006C3900206A390020683900207E390020AD
:10231000893900208C390020853900208639002039
:102320008B39002088390020843900208A39002028
:102330008D3900208739002010B5CE4B1B88CE4A3E
:102340001288934200D039E3CB4C2380CB4B1B88BF
:102350006380CB4B1B78643B2371CA4B1B88637132
:102360001E236371C84B1B88E380C84B1B882381E5
:10237000C74B1B886381C74B1B88A381C64B1B8837
:10238000E381C64B1B882382C54B1B886382C54BE8
:102390001B882375C44B1B886375C44B1B88A375AE
:1023A000C34B1B88E375C34B1B882376C24B1B882A
:1023B0006383C24B1B88A383C14B1B88A377C14B8C
:1023C0001B88E377C04B1A882023E254BF4B1A883E
:1023D0002123E254BE4B1A882223E254BD4B1B88B2
:1023E000A384BD4B1B88E384BC4B1A882823E2548A
:1023F000BB4B1A882923E254BA4B1A882A23E25489
:10240000B94B1A882B23E254B84B1A882C23E25478
:10241000B74B188806F01AF9B64905F0EDFB2063B2
:10242000B54B188806F012F9B24905F0E5FB606378
:10243000B24B188806F00AF9AE4905F0DDFBA0633F
:10244000AF4B188806F002F9AA4905F0D5FBE06306
:10245000AC4B188806F0FAF8A64905F0CDFB2064CD
:10246000A94B188806F0F2F8A24905F0C5FB606494
:10247000A64B188806F0EAF89E4905F0BDFBA0645B
:10248000A34B188806F0E2F89A4905F0B5FBE06422
:10249000A04B188806F0DAF8964905F0ADFB2065E8
:1024A0009D4B188806F0D2F8924905F0A5FB6065AF
:1024B0009A4B188806F0CAF88E4905F09DFBA06576
:1024C000974B188806F0C2F88A4905F095FBE0653D
:1024D000944B1A886023E252934B1A886223E25489
:1024E000924B1A886323E254914B1A886423E25476
:1024F000904B1A886523E2548F4B1A886623E25466
:102500008E4B1A886723E2548D4B1A886823E25455
:102510008C4B1A886923E2548B4B1A886A23E25445
:102520008A4B1A886B23E254894B1A886C23E25435
:10253000884B1A886D23E254874B1A886E23E25425
:10254000864B1A886F23E254854B1A887023E25415
:10255000844B1A887123E254834B1A887223E25405
:10256000824B1A887423E252814B1A887623E254F4
:10257000804B1A887723E2547F4B1A887823E254E1
:102580007E4B1A887923E2547D4B1A887A23E254D1
:102590007C4B1A887B23E2547B4B1A887C23E254C1
:1025A0007A4B1A887D23E254794B1A887E23E254B1
:1025B000784B1A887F23E254774B1A888023E254A1
:1025C000764B1A888123E254754B1A888223E25491
:1025D000744B1A888323E254734B1A888423E25481
:1025E000724B1A888523E254714B1A888623E25471
:1025F000704B1A888723E2546F4B1A888823E25461
:102600006E4B1A888923E2546D4B1A888A23E25450
:102610006C4B1A888B23E2546B4B1A888C23E25440
:102620006A4B1A888D23E254694B1A888E23E25430
:10263000684B1A888F23E254674B1A889023E25420
:10264000664B1A889123E254654B1A889223E25410
:10265000644B1A889323E254634B1A889423E25400
:10266000624B1A889623E252614B1A889823E252F1
:10267000C0E0C04600F000101806002002F0001074
:1026800004F0001006F0001008F000100AF000102E
:102690000CF000100EF0001010F0001012F00010FE
:1026A00014F0001016F0001018F000101AF00010CE
:1026B0001CF000101EF0001020F0001022F000109E
:1026C00024F0001026F0001028F000102AF000106E
:1026D0002CF000102EF0001030F0001032F000103E
:1026E00034F0001036F0001038F000103AF000100E
:1026F0003CF000100000C8423EF0001040F0001016
:1027000042F0001044F0001046F0001048F00010B5
:102710004AF000104CF000104EF0001050F0001085
:1027200052F0001054F0001056F0001058F0001055
:102730005AF000105CF000105EF0001060F0001025
:1027400062F0001064F0001066F0001068F00010F5
:102750006AF000106CF000106EF0001070F00010C5
:1027600072F0001074F0001076F0001078F0001095
:102770007AF000107CF000107EF0001080F0001065
:1027800082F0001084F0001086F0001088F0001035
:102790008AF000108CF000108EF0001090F0001005
:1027A00092F0001094F0001096F0001098F00010D5
:1027B0009AF000109CF000109EF00010A0F00010A5
:1027C000A2F00010A4F00010A6F00010A8F0001075
:1027D000AAF00010ACF00010AEF00010B0F0001045
:1027E000B2F00010B4F00010B6F00010B8F0001015
:1027F000BAF00010724B1A889A23E252714B1A8871
:102800009C23E252704B1A889E23E2546F4B1A8825
:102810009F23E2546E4B1A88A023E2546D4B1A8812
:10282000A123E2546C4B1A88A223E2546B4B1A8802
:10283000A323E2546A4B1A88A423E254694B1A88F2
:10284000A523E254684B1A88A623E254674B1A88E2
:10285000A723E254664B1A88A823E254654B1A88D2
:10286000A923E254644B1A88AA23E254634B1A88C2
:10287000AB23E254624B1A88AC23E254614B1A88B2
:10288000AD23E254604B1A88AE23E2545F4B1A88A2
:10289000AF23E2545E4B1A88B023E2545D4B1A8892
:1028A000B123E2545C4B1A88B223E2545B4B1A8882
:1028B000B323E2545A4B1A88B423E254594B1A8872
:1028C000B523E254584B1A88B623E254574B1A8862
:1028D000B723E254564B1A88B823E254554B1A8852
:1028E000B923E254544B1A88BA23E254534B1A8842
:1028F000BB23E254524B1A88BC23E254514B1A8832
:10290000BD23E254504B1A88BE23E2544F4B1A8821
:10291000BF23E2544E4B1A88C023E2544D4B1A8811
:10292000C123E2544C4B1A88C223E2544B4B1A8801
:10293000C323E2544A4B1A88C423E254494B1A88F1
:10294000C523E254484B1A88C623E254474B1A88E1
:10295000C723E254464B1A88C823E254454B1A88D1
:10296000C923E254444B1A88CA23E254434B1A88C1
:10297000CB23E254424B1A88CC23E254414B1A88B1
:10298000CD23E254404B1A88CE23E2543F4B1A88A1
:10299000CF23E2543E4B1A88D023E2543D4B1A8891
:1029A000D123E2543C4B1A88D223E2543B4B1A8881
:1029B000D323E2543A4B1A88D423E25410BDC046C4
:1029C000BCF00010BEF00010C0F00010C2F000100B
:1029D000C4F00010C6F00010C8F00010CAF00010DB
:1029E000CCF00010CEF00010D0F00010D2F00010AB
:1029F000D4F00010D6F00010D8F00010DAF000107B
:102A0000DCF00010DEF00010E0F00010E2F000104A
:102A1000E4F00010E6F00010E8F00010EAF000101A
:102A2000ECF00010EEF00010F0F00010F2F00010EA
:102A3000F4F00010F6F00010F8F00010FAF00010BA
:102A4000FCF00010FEF0001000F1001002F1001088
:102A500004F1001006F1001008F100100AF1001056
:102A60000CF100100EF1001010F1001012F1001026
:102A700014F1001016F1001018F100101AF10010F6
:102A80001CF100101EF1001020F1001022F10010C6
:102A900024F1001026F1001028F100102AF1001096
:102AA0002CF1001070B5164B1B78002B14D0012BA5
:102AB00016D0144B1B78002B0DD0134D2C88134BC4
:102AC000134A12785200D05A6043642104F00AFB82
:102AD00080B224182C8070BD0A4B01221A70E8E7DE
:102AE0000C4B1B88002B03D1064B01221A70E0E728
:102AF000074B1B782D2BDCD9024B00221A70D8E72C
:102B0000253C0020273C00201A3A0020583A00209B
:102B1000DD3B0020543B002010B5194B1B78002BE7
:102B20000BD1184B1B88002B07D1174B01221A70B1
:102B3000164B174A12781A701DE0134B1B78002BA6
:102B400019D0124B1B78002B16D0104A013B137082
:102B50000E4B1B78642058430D4B197804F0D2FAC1
:102B600083B26420C01A80B20A4C2388584364217F
:102B700004F0C8FA208010BD034B00221A70E7E76A
:102B8000DD3B00204E3A0020223C0020213C00206A
:102B9000080700201A3A002010B5164B1B78002BAE
:102BA00023D0154A1378591C1170DB0703D5134A3B
:102BB000138801331380114B1A88C8239B009A4253
:102BC00002D90E4BA0221A800C4B1B88DB08DBB20B
:102BD0000B4A13700B4A1288534364205843A721B1
:102BE00004F080FA084B188010BD044BA0221A8014
:102BF000FAE7C0463C3C00202B3C0020523A002023
:102C0000E03B00201A3A0020543A002010B50F4B48
:102C10001B889BB2002B15D00C4B198889B20C4B2A
:102C20001889AB239B00584304F05CFA094B1880C9
:102C3000094B1B78002B04D0064A99005B185B00F7
:102C4000138010BD034B00221A80F1E7AA3D00203B
:102C5000BC390020543B00206E3C002008490A8803
:102C60009308D21A92B20A80064B1B889B189BB21B
:102C70000B80054A9B0857214B4313807047C04681
:102C8000163A00209C3D00203C3A0020724B9B7C71
:102C9000012B5ED0704B9B7C022B5AD06E4B9B7CE1
:102CA000052B56D06C4B9B7C042B52D06B4B0022D7
:102CB0001A706B4B1A880A2A07D9684B1B78002BAD
:102CC0004FD1654B9B7C032B4BD0664B0021197079
:102CD000644B1B783C2B03D9634B1978634B1970F9
:102CE000634B1988634B1B88994203D05E4B19785C
:102CF0005E4B1970594B1978002915D05E4B1B8813
:102D00000A3B9BB291204000834209D85B4B188854
:102D1000AF239B00984203D8594B1B78002B03D05C
:102D2000584B1878514B1870574B1B88642B25D97A
:102D3000564B1B78002B21D100291FD0544B1B78F8
:102D4000013BDBB2812B19D952490B7801330B704F
:102D500017E0514B1B78002BA8D1404B01221A7071
:102D6000A7E74E4B1B78002B03D04D4B1B78002B55
:102D7000ABD13C490B7801330B70A9E7454B0021DF
:102D80001970444B1B78FA2B03D9464B1978374BF3
:102D90001970454B1B78002B20D15A2A0CD92E4B89
:102DA0009B7C072B08D02C4B9B7C062B04D03F49E7
:102DB0000B8801330B8002E03C4B002119803C4B17
:102DC0001B88002B02D0394B00211980374B1B8800
:102DD0007D2B03D9374B1978244B1970364B1B7850
:102DE0001E2B10D9092A0ED8344A13780133DBB2CE
:102DF00013700A2B0AD9324B1A781C4B1A702F4BBE
:102E000000221A7002E02D4B00221A702D4AC523B1
:102E10009B00D3589B109B059B0D2B4A13800E4B98
:102E20005B7CDBB2294AD35C002B14D0284B1B7887
:102E3000132B10D8264A01331370234B1A8892089B
:102E40000C4B79215B5C0533DBB29A4203D9214BF1
:102E50001A78064B1A707047BC390020153C0020C8
:102E60004E3A0020DA3B0020873900202D3C00201C
:102E700000F0001018060020243A0020183A002024
:102E80007F3B00208C3900201C3A0020243C00208D
:102E9000DD3B00208F3B0020813B00207E3B00205B
:102EA000C83B0020853900202F3C0020403A0020FC
:102EB000543B00208A390020893B0020D93B002068
:102EC0008639002000080348923D0020343C002051
:102ED000313C00208B39002010B52A4B1B78002B89
:102EE00011D0294B1A78C8239B0053439BB2274A21
:102EF00010885843264B19894B00C918C90104F0A2
:102F0000F1F8244B1880244B6A229B5C002B22D0C2
:102F1000204B1C88002C07D0204B1888210004F07F
:102F2000E1F884B26400A4B21D4B1988002906D0D0
:102F30001A4B188804F0D6F881B2490089B2194BAF
:102F40001B78002B0FD08C4206D2091B89B2164A7F
:102F500013685B18136010BD611A89B2124A1368B6
:102F60005B1A1360F7E7002CF5D00F4B1B680F4A74
:102F70009342F0D90C4A1B1B1360064B00221A80A7
:102F8000E9E7C046C43B0020DC3B0020AA3D00200E
:102F9000BC390020503A002018060020463A002094
:102FA000443A0020AC3B0020F806002000E1F50583
:102FB00010B50D4B18880D4B1B7858430A2104F0AF
:102FC00091F880B20A4B18800A4B1A688018186072
:102FD000094904F087F8094B1860094B1B68C018B1
:102FE000084B186010BDC0463A3A0020893B0020CB
:102FF000363A0020743B0020907E0000703B002099
:103000006C3B0020783B002070B582B0204B1888C4
:10301000C72807D91F4B18221A701F4B0F3A1A7076
:1030200002B070BD1D4E33788008C0B218250095DF
:1030300032220A21FEF759FD164C20703378184AC7
:103040001078009546221421FEF74FFD2378834225
:1030500001D9104B1870134E33780D4A1088800830
:10306000C0B20925009532220A21FEF73EFD0A4C26
:10307000207033780A4A1078009546221421FEF712
:1030800034FD23788342CBD9034B1870C8E7C04680
:10309000543B002003070020010700200407002004
:1030A000DD3B00200207002010B5334B1C78334B6A
:1030B0005B7B002B0ED0324B1B78002B0AD1314B9F
:1030C0001A88314B197878235B1A9A4202DD2C4B0F
:1030D00001221A70294B1B7D002B3FD1284B1A78F7
:1030E000002A03D1294B1B78002B36D0254B198899
:1030F000274B1B784B43544363435B0A5801C01A68
:103100008000C018C000234B198803F0EBFF84B285
:103110002409FFF779FF204B1A78A24221D21F4BD6
:103120001A701F4B88229B5C002B0FD01D4B1B7805
:10313000002B19D0194B1B78144A1278934201D9ED
:10314000124A1370154B114A12781A70134B1B78E0
:10315000002B0DD0144BFE221A7010BDFFF7A2FCFD
:10316000BCE70E4B1C70DCE7084B00221A70EDE741
:103170000D4B00221A70F0E7E93B0020BC3900201B
:10318000DD3B00201A3A0020843B0020233C002035
:10319000E13B00203C3A0020FC0600207E3B002062
:1031A00018060020243C0020C83B002070B5334B9B
:1031B000C9229B5C002B52D1314B5B7B002B0ED084
:1031C000304B1B78002B0AD12F4B1A882F4B1978C4
:1031D00078235B1A9A4202DD2A4B01221A70284B8F
:1031E0009B7B002B02D0274B01221A70264B1B8899
:1031F000002B03D0234A1278002A03D1244A1278E4
:10320000002A2BD0234A10785843782103F07AFF04
:10321000040085B2FFF7F8FE1F4B1A78AA4221D2AC
:103220001E4B1A70154B88229B5C002B0FD01C4B39
:103230001B78002B19D0194B1B78154A1278934232
:1032400001D9134A1370154B114A12781A70134B97
:103250001B78002B0DD0134BFE221A7070BDFFF7A8
:103260005BFCA9E70D4B1C70DCE7094B00221A70D0
:10327000EDE70C4B00221A70F0E7C046180600205C
:10328000BC390020DD3B00201A3A0020843B00209E
:10329000233C0020E93B0020FC0600207E3B002070
:1032A000243C0020C83B002010B5194B1A78002A96
:1032B00025D0184B1B789B189B10174A1380174B6F
:1032C0001B78A42B02D8154BA5221A70FFF724FCFB
:1032D000124BA5221A70104B1C88114A12881A80B2
:1032E000FFF792FE0F4B1A78A24209D20E4B1A70CA
:1032F0000D4B1B78002B06D00C4BFE221A7010BD14
:10330000094B1C70F4E7094B00221A70F7E7C0461E
:10331000DD3B0020E93B00201A3A0020080700208E
:103320001E3A0020FC0600207E3B0020C83B002007
:1033300070B5384B5B7B002B0ED0374B1B78002BC6
:103340000AD1364B1A88364B197878235B1A9A4281
:1033500002DD314B01221A702E4B9B7B002B02D0D9
:103360002D4B01221A702D4B1888002803D02A4BB0
:103370001B78002B03D12B4B1B78002B3CD02A4B06
:103380001B785B00FE214900C91A89B2274B1B78C4
:10339000002B05D0204B1B788B422ED8C91A89B23E
:1033A0000A3189B24043081803F09CFE040085B23C
:1033B000FFF72AFE1E4B1A78AA4220D21D4B1A7024
:1033C0001D4B88229B5C002B0FD01C4B1B78002BC5
:1033D00018D0184B1B78134A1278934201D9114A1E
:1033E0001370144B0F4A12781A70124B1B78002B73
:1033F0000CD0134BFE221A7070BD0021D0E70D4B8C
:103400001C70DDE7074B00221A70EEE70C4B002220
:103410001A70F1E7BC390020DD3B00201A3A002089
:10342000843B0020233C0020E93B0020C93B0020D6
:10343000FC0600207E3B002018060020243C0020D3
:10344000C83B002070B5404BC9229B5C002B30D19B
:103450003E4B5B7B002B0ED03D4B1B78002B0AD1E3
:103460003C4B1A883C4B197878235B1A9A4202DD50
:10347000374B01221A70354B9B7B002B02D0344B0B
:1034800001221A70324B1E78002E03D1334B1B7869
:10349000002B4DD02F4B1D88002D0DD0304B1A78AE
:1034A000304B9B1858796843782103F02BFE84B287
:1034B00003E0FFF731FBCBE72C002B4B1B782B4AAB
:1034C00012786A4392B2734353435B0A5801C01A9D
:1034D0008000C018C000264B198803F003FE80B29C
:1034E0000009844200D20400FFF78EFD214B1A78B8
:1034F000A2421ED2204B1A70134B88229B5C002BD9
:103500000FD01E4B1B78002B16D01B4B1B78134A79
:103510001278934201D9114A1370174B0F4A12784F
:103520001A70154B1B78002B0AD0154BFE221A700F
:1035300070BD114B1C70DFE7084B00221A70F0E7DA
:103540000F4B00221A70F3E718060020BC39002048
:10355000DD3B00201A3A0020843B0020233C002061
:10356000FE060020EC3B0020E93B0020E13B002070
:103570003C3A0020FC0600207E3B0020243C00203A
:10358000C83B002030B583B0904BCC229B5C002B15
:1035900000D1C7E08E4B5B7CDBB28E4AD35C8E4A97
:1035A00013708E4A11788E4A1278914200D195E0BC
:1035B0008A490A70854A7821525C002A00D1B3E01A
:1035C000824A1339525C002A00D18BE09BB2854AB3
:1035D0001288934200D993E0834B1B78002B00D1D3
:1035E0008EE0824B1B78002B04D1814B1B78002B83
:1035F00000D185E07A4B06221A707E4B1B78002B97
:1036000018D07C4A002313707B4A13807B4A1380B6
:103610007B4AFA21490011807A4A13807A4A138042
:103620007A4B7B4A12789B185B7E9A009B185B0052
:10363000784A1380774A6B4B12881B88D21A93B250
:1036400010B26D4A10806E490A889A1812B20A8028
:10365000FA2189008A4200DCADE0694A1180674C9A
:103660002188591A8AB2674D298020809B009BB21D
:1036700051005218520092B261490020085E810048
:103680000918C9109B185B181BB25F4A1380002BE6
:1036900000DA97E05C4B00229A5EFA239B009A4284
:1036A00003DD594BFA2292001A805B4BF4221A7008
:1036B0005A4BAB3A1A705A4B5A4A12781A70524BFC
:1036C0000020185E8010C0B2FE2300930023FA226F
:1036D0000021FEF70AFA544B187023E0424A0121F8
:1036E000117067E79BB23F4A1288934208D83E4B5D
:1036F0001B78002B04D03D4B1B78002B00D079E7C2
:10370000394B00221A703B4B01321A70344B023293
:103710001A703E4B3E4A12789B189A7A434B1A70A5
:10372000FFF7C2FD03B030BD284AB521525C002A24
:103730002FD0264A5039525C002A17D09BB2294A12
:1037400012889342DCD8224B5B7C002BD8D1264BCD
:103750001B78002BD4D0254B1B78002B00D049E7D9
:10376000234B1B78002B00D044E7C9E79BB21D4ACE
:1037700012889342C4D8164B5B7C002BC0D11A4BE5
:103780001B78002BBCD0194B1B78002B00D031E7E5
:10379000B6E79BB2134A12889342B1D80C4B5B7CBC
:1037A000002BADD1104B1B78002BA9D00F4B1B78F1
:1037B000002BA5D01EE7002A00DB50E7104A0021AD
:1037C00011804CE7130000221A8063E718060020DE
:1037D000BC390020983B0020943B0020E83B0020AF
:1037E000E73B0020543B0020923B0020DD3B0020C3
:1037F000933B0020913B0020AE390020B2390020DD
:10380000B0390020AC390020AA390020EC3B002060
:10381000FE060020523B0020030700200107002085
:103820007E3B0020FC060020C83B0020E93B002036
:1038300030B583B03F4AC7239B00D3589B109B05EC
:103840009B0D3D4A138010883C4C7923E15C013389
:10385000E25C4033E35CBB25645D8008C0B2009449
:10386000FEF743F9364B187000282FD0354B1870EF
:10387000354B5B7CDBB2354AD35C012B2AD0032B62
:1038800030D0304B1878324B1B7800930023FF2246
:103890000021FEF72AF9040005002E4B1B78834215
:1038A00012D22D4B1888FE282BD92C4B30221A709F
:1038B0002B4B273A1A70264B1B78AB4237D2254A3E
:1038C0001370284BFE221A7003B030BD1D4B00222E
:1038D0001A70CDE7244B1B78002BD2D1194B002254
:1038E0001A70CEE7154BAE229A5C1B4B1B889A428E
:1038F000C7D21D4B1B78002BC3D1124B00221A706C
:10390000BFE7C0B230230093C433FF222821FEF763
:10391000ECF8124B1870104B1878092300934033C1
:10392000FF222821FEF7E1F80D4B1870C3E7094B81
:103930001C70C6E700080348923D002018060020CE
:10394000303C0020813B0020BC390020343C00206A
:10395000FC0600207E3B0020543B00200307002093
:1039600001070020C83B0020DD3B002010B582B0DD
:103970001B4B1C88A4B2C8221A4B18885623FF334D
:103980000093194B52002821FEF785F8174B188039
:10399000002C0BD02100164803F0A4FBC0B2154B3D
:1039A0001870782805D978221A7002E0114B00228D
:1039B0001A70114B00221A800E4B1C78002C0AD072
:1039C0000E4B1878001B002805DD0002210003F0D3
:1039D00099FB094B1880094B1C7002B010BDC04602
:1039E000A03D0020543B0020AE100000F206002055
:1039F00035DF0000DD3B0020B4390020DE3B002035
:103A000070B582B0114B9B7A002B01D102B070BD12
:103A10000E4A937A023BDBB2990059184900947A16
:103A20000234E4B2A300E4186400094E3378094D6F
:103A30002888002200922200FEF72DF830702B8893
:103A4000A342E3D9044B00221A70DFE7BC390020FF
:103A50007E3B0020543B0020C83B002010B56E4A3E
:103A600013780133DBB213706C490A780132D2B299
:103A70000A706B49097800291BD0032B19D9664BB2
:103A800000211970664B1970664B1B78002B1AD0F9
:103A9000012A18D9614B00221A70624B1A70624BCE
:103AA000DB7CDBB2082B00D9B0E09B005F4AD35827
:103AB0009F460029E8D1022BE6D9574B1970584B85
:103AC00001311970E0E7002BE9D1012AE7D9534B06
:103AD00000221A70534B01321A70E0E7544B1878E9
:103AE000FEF74CF810BD524B1878002804D04C4B10
:103AF0001878FEF743F8F5E7FEF740F8F2E74C4B8D
:103B00001878002803D04B4B1B78002B02D1FEF70E
:103B100035F8E7E7434B1878FEF730F8E2E7444B17
:103B20001878002803D0434B1B78002B06D10028BF
:103B30000AD03B4B1878FEF721F8D3E73D4B1878B5
:103B4000C0B2FEF71BF8CDE7FEF718F8CAE7384B0E
:103B50001878002803D0374B1B78002B06D100289B
:103B600009D02F4B1878FEF709F8BBE72D4B1878D2
:103B7000FEF704F8B6E7FEF701F8B3E72D4B1B7824
:103B8000002B05D02B4B1878C0B2FDF7F7FFA9E743
:103B9000274B1878FDF7F2FFA4E7264B1B78002B84
:103BA00004D0204B1878FDF7E9FF9BE7204B1878ED
:103BB000FDF7E4FF96E71F4B1B78002B08D11C4B49
:103BC000187800280AD0164B1878FDF7D7FF89E738
:103BD000184B1878C0B2FDF7D1FF83E7FDF7CEFF91
:103BE00080E7144B1B78002B08D1114B1878002864
:103BF00009D00B4B1878FDF7C1FF73E7094B187814
:103C0000FDF7BCFF6EE7FDF7B9FF6BE7084B1878CF
:103C1000FDF7B4FF66E7C046A33B00208E3B0020C3
:103C2000A23B00208D3B0020BC390020E8A0001002
:103C3000D43B0020D83D002010B5754B9B7B002B5A
:103C40001DD0744B1B781433734A1370724B1B785E
:103C5000822B02D9704B82221A70704BF4221A7098
:103C60006F4BAB3A1A706F4B19782820FDF765FF40
:103C70006D4B18706D4B684A12781A7010BD654B09
:103C800018786B4B18706B4B1B78002B0ED16A4A5F
:103C90001288002A0AD1604B32321A70674B1A70B0
:103CA000674B00221A80674B1A80CFE7002B6FD03A
:103CB000614B1B88644A1288934219D2634B0422D9
:103CC0001A70634A1378591C1170042BBED9524BD9
:103CD0001A785A4B1B789A4206D24F4B01321A700F
:103CE0005B4B00221A70B1E7544A01331370F7E7B7
:103CF000544909888B4217D29B1A9B00DBB2534A66
:103D0000137053490A78501C087093429ED2424B5C
:103D10001B784A4A1278934202D23F4A0133137009
:103D20004B4B00221A7091E74A4A1288934216D2EE
:103D3000D31A9B00DBB2454A137045490A78501CE0
:103D40000870934200D381E7334B1B78282B02D9AC
:103D5000314A013B13703E4B00221A7076E73B4B11
:103D600004221A703A4A1378591C1170042B00D897
:103D70006CE7294B1B78282B06D9274A013B137087
:103D80002E4A1378013B1370314B00221A705DE705
:103D90002E4B0A221A702E4A1378591C11700A2BC6
:103DA00000D853E72C4B1988002925D02A2903D99C
:103DB000194A1378013B1370214A13885C1C148044
:103DC000092B15D91D4A13780A3313701A4B1B8817
:103DD000584303F097F980B21A4B18800200143A46
:103DE000194B1A8014301B4B1880124B01221A7089
:103DF000174B00221A7029E7104B1B78772BF7D846
:103E000005490A7801320A700C4A01331370EFE752
:103E1000BC390020E93B00200A07002003070020EE
:103E200001070020FC0600207E3B0020C83B00204C
:103E3000693C0020683C00204E3A00200907002021
:103E4000503B00204E3B00204C3B00205D3C0020BE
:103E5000623C00204A3B0020543B002010B5BD4B83
:103E6000C2221A70BC4B793A1A70BC4B00221A70ED
:103E7000BB4B1A70BB4BBE329B5C002B24D0BA4BA1
:103E80001B88F52B1DD9B94A1178C9B2B84A1278E6
:103E9000D2B2914215D2B74A1278002A11D10B330F
:103EA000DBB2B54A13705B09B44A13701378DBB206
:103EB000052B02D9130005221A70B14B01221A708A
:103EC00002E0AF4B00221A70AE4B1B78002B20D1C2
:103ED000AD4B9B7CDBB2082B3BD89B00AB4AD35845
:103EE0009F46FFF7E1F834E0FFF760F931E0FFF7B4
:103EF000DBF92EE0FFF71CFA2BE0FFF7A3FA28E02E
:103F0000FFF740FB25E0FFF797FE22E0FEF744FEB7
:103F10001FE09F4B1A78642353431B11DBB28F4A77
:103F200013708F2B02D913008F221A70994B1B78B4
:103F3000002B02D0894B00221A70974B1B78884ABD
:103F40001370FD2B02D91300FE221A70934B3222FC
:103F50001A70844BCD229B5C002B07D08A4B5B7C74
:103F6000DBB28F4AD35C002B00D0BAE0FFF748FDEC
:103F70008C4AC1239B00D3589BB29B08DBB28A4A70
:103F800012789A4203D2894B894A12781A70754B7B
:103F9000D2229B5C002B0ED0844A1278002A00D1DA
:103FA000A2E08448017801310170824909788B428E
:103FB00001D8784B1A706D4B1A789300D2185301C0
:103FC0007D4A13607D4A11685B1813607C490A685A
:103FD000013A0A60002A07D19B097A4A13604022FD
:103FE0000A60764B00221A60774B1B78002B33D186
:103FF000764B1B78002B2FD0664B1B78DBB2744AB4
:104000001278934228D0634B1B78DBB2714A127846
:10401000934221D05F4B1B78DBB2654A1278934202
:104020001AD05C4B1B78DBB26B4A1278934213D0E8
:104030006A4B1B78002B0FD0584B1B78002B0BD0F2
:10404000674B1B78002B07D1524B1B78002B4FD0AE
:104050004D4B9B7B002B4BD1624BC2221A70624BA3
:10406000B93A1A70424B00221A70604B1A70574BC3
:104070001B78002B00D1BFE0464A1278D2B25449D7
:1040800009788A4227D0434A1278D2B25149097836
:104090008A4220D03F4A1278D2B2454909788A42F2
:1040A00019D03C4A1278D2B24B4909788A4212D0D0
:1040B0004B4A1278002A0ED12B4A1288002A00D0CF
:1040C0009AE0264A1278002A00D095E0484A1278F1
:1040D000002A00D090E03D4B00221A7002F074FCE0
:1040E00010BDFFF7A5FB41E73249002008705CE7EF
:1040F000404B1B788F2B02D93E4B8F221A703D4BC1
:104100001B7819003231284A1170144A12789342F0
:1041100001D2124A13700F4B1B78172B02D80D4B8C
:1041200018221A700C4B1B78082B02D80A4B092254
:104130001A70084B1A782B4B1A70074B1A782A4BB7
:104140001A70064B1A780A4B1A70054B1A78274BCF
:104150001A708CE703070020010700207E3B002037
:10416000C83B0020180600204E3A0020CC3D00201D
:10417000D93D0020813B0020CC3B0020E13D0020C8
:10418000DD3D00202F3C0020BC3900200CA1001098
:10419000000700202D3C002005070020E93B0020FF
:1041A000343C002000040348FD060020CA3B0020E8
:1041B00084390020CB3B0020683B0020603B00207E
:1041C000F4060020643B0020D83D002006070020B4
:1041D00086390020873900208B390020FE06002018
:1041E000CF3D00201A07002019070020DA3D0020EB
:1041F000E23D0020FC060020002B00D070E70D4BB4
:104200001B889F2B00D96BE70B4B1B78002B00D131
:1042100066E70A4B1B78002B00D061E7084B0122B0
:104220001A70084B1D321A70074B00221A7002F0E8
:1042300007FC55E74E3A00207E3B0020D83D002089
:1042400006070020E23D0020E03D002010B582B0CE
:104250006B4B7E229B5C002B09D1694B47329B5CE8
:10426000002B04D1664B0E329B5C002B06D0654BB5
:104270001B78452B02D8634B46221A70624BD888B4
:1042800064235843572102F02DFF80B25F4B188002
:104290005F4B1B78642B02D95D4B64221A70584C1B
:1042A000607D18230093AA3364220021FDF71DFCD2
:1042B000584B18702923E05C203B00934033642264
:1042C0000021FDF712FC544B1870CA23E05CAC3B94
:1042D0000093E13364220021FDF707FC4F4B187077
:1042E000237E4F4A13704F4A1278002A39D0444B2C
:1042F000C2229A5C4A4B5A70414BC2229A5C4A4B8A
:104300001A70414B197C494A1170597D5171597C81
:104310005170197D9171997DD172597B5172997B40
:104320009173997C424A1170D97C424A1170DB7BAF
:104330009B00414A138013889BB2002B0BD013883B
:10434000FA208000C01A3D4B1B885843642102F0BC
:10435000C9FE3B4B18602A4B9A8B3A4B1A800123BB
:1043600010E02F4A5370C7E75A1E36495200505A80
:10437000234A2124125D4243120A801A5A008852AD
:104380000133DBB2772BEFD91D4BBD229B5C002B99
:1043900002D02D4BBC3A1A701B4B1879642358433A
:1043A00080B20009C0B2294B1870154CA28C284B62
:1043B0005A43120927490A607422A25A53431B091F
:1043C0004B60BB23584380B28F2102F08BFE80B23A
:1043D000214B18801B889BB2BB2B02D91E4BBB22E2
:1043E0001A80074BB7229A5C1C490A80C021585C8E
:1043F0001B4908705B8B9B1A1A4A138002B010BDD0
:1044000018060020AA3B0020BC3900200E0700201F
:10441000843B00200407002002070020080700203A
:10442000E43B0020373C0020DF3B0020B43B002071
:10443000C53B0020C33B0020303A0020143A002046
:104440006C3B0020583A0020AC3B00207C3B002015
:10445000A0860100583B0020F00600202C3A0020E6
:10446000803B00202E3A0020030043434B431B0AAD
:1044700043431B0B80225200521A5043C018803015
:10448000000A704770B5040000290CD000280BDB2F
:104490008023DB00984200DD1800002906DBFFF7CF
:1044A000E3FF002C0ADB70BD4042F1E74942802562
:1044B000ED00281AFFF7D8FF281AF2E74042F2E78A
:1044C000002304E0064A5900002088520133182BCB
:1044D000F8D9044B00221A60034B1A607047C0469B
:1044E000D8390020103A00200C3A002010B5094CB1
:1044F0002368094A59005052581C192102F012FE33
:104500002160064B1B68182B02D8044A0133136044
:1045100010BDC046103A0020D83900200C3A0020C7
:1045200010B50A4B196800290DD00023002004E0C3
:10453000074A5C00A25A801801339942F8D802F069
:10454000D1FD80B210BD0020FCE7C0460C3A00202F
:10455000D839002070B56B4B1B78772B39D96A4B53
:104560006A4A12881A806A4B00229B5E192B07DD6B
:10457000684B00221A80684B1A80684B01321A700F
:10458000674B1B781E2B02D8644A01211170002B47
:1045900006D0644B1B889BB2634A1288934201D8B1
:1045A000FFF78EFF5F4B1B88604A12889B1ADA1751
:1045B0009B1853409BB27D2B36D9AF2B37D9C82BD4
:1045C00037D9FA2B37D9AF225200934235D810256C
:1045D0002BE0544B188880B2554C21880422FDF7FB
:1045E000B2FA2080474A13780133DBB21370782B7C
:1045F00006D04E4B1880444B444A12881A802AE059
:104600004C4B1B78002BF4D0474B1B88984207D9A2
:10461000494B1B88984203D2484B00221A70E8E7A6
:10462000464B01221A70E4E7012500240DE0022523
:10463000FBE70425F9E70825F7E70125F5E7394BFE
:10464000188880B2FFF752FF0134A542F7DCFFF76C
:1046500067FF364B1880354B1B882B4A11888B42DD
:104660004CD9374A1278032A42D035D8012A37D09C
:10467000022A3FD103200A22121A9200D2B23148F4
:104680000270581A80B2304B18808002143A5400DD
:10469000A418A4002D4B198802F034FD2100FFF767
:1046A000F1FE2B4B186083001B185B019B12294AFB
:1046B0001380284B1B88284A1380284A1380284AD5
:1046C0001078584380B2164B1B785843602102F093
:1046D00009FD244B188070BD042A0DD10520CAE7BE
:1046E000214A1278012A01D00220C4E70120C2E742
:1046F0000420C0E70020BEE70020BCE7154B0022E5
:104700001A80D6E7D5390020243A00202C3A002020
:10471000B4390020963D00209A3D0020CD3D002078
:10472000DD3B0020983D00202A3A0020183A002066
:10473000263A0020373C0020283A00207F3B00200A
:10474000FE060020803B0020203A00202E3A002068
:10475000B83900201A3A00201E3A00201C3A0020E6
:10476000E13B00204C3A0020823B00201E4A8A2375
:104770005B00D3581B070AD48E235B00D358DBB2EF
:104780001A4A1278D1B2002A02D0012915D07047F6
:10479000592B05D0164B00221A70144B1A70F6E7ED
:1047A000134A1178C9B21348435413780133DBB26A
:1047B00013700E4B01221A70E9E70D4A1178C9B245
:1047C0000C48435413780133DBB213701378DBB217
:1047D000062BDCD9130000221A70044B1A70064B0A
:1047E00001321A70D3E7C046000200482A3C00207C
:1047F0001F3C0020183C0020E63B002070B5BC4B5D
:104800001B78002B01D100F096FCBA4B43221A70A2
:10481000B94B00221A70B94A137801218B431370E7
:10482000B74B7E229B5C002B04D1B54B02329B5CC4
:10483000002B6ED0B34B1A78072A0CD89300B24ADB
:10484000D3589F46AD4A137801210B43DBB2137056
:10485000A84B00225A70AA4B7F229B5C002B00D1F0
:1048600095E0AA4B19881A78A24BDA70A84B1B88DE
:10487000994200D387E09B1ADBB29E4A137102F083
:1048800035FA89235B00984200D3B2E0A14B0022A5
:104890001A70A04B1B78502B03D99F4B1A78964B5C
:1048A0001A709E4B1B78DBB29D4A1278934200D15E
:1048B000A5E09A4B1B78002B00D1A2E08E4B1B7811
:1048C000002B00D09DE0954B1B78DBB28A4A137019
:1048D00097E0884B00225A70BDE7864B02225A703F
:1048E000B9E7844B06225A70B5E7824B09225A7009
:1048F000B1E7804B0C225A70ADE77E4B0C225A7008
:10490000A9E77C4B0C225A70864B1A787A4B1A70A6
:10491000A1E77C4B1A78092A9DD89300824AD35884
:104920009F46764A137801210B43DBB21370714B1B
:1049300000225A708FE76F4B00225A708BE76D4B45
:1049400002225A7087E76B4B04225A7083E7694B47
:1049500006225A707FE7674B08225A707BE7654B47
:104960000A225A7077E7634B0C225A7073E7614B47
:104970000C225A706FE75F4B0C225A70694B1A7801
:104980005D4B1A7067E75B4B00221A7177E75C4B4F
:10499000C5229B5C002B09D1594BD3229B5C002B79
:1049A00016D1544B4622DA701A7168E75F4B1B78B8
:1049B000504CE3705E4D29885E4B1888B83AFDF77D
:1049C000C2F82880642102F08DFBC0B2207156E746
:1049D000484C0023E370564D2988564B1888CB3A33
:1049E000FDF7B1F82880642102F07CFBC0B2207191
:1049F00045E702F07BF91138464B187049E73E4B0A
:104A00001A703D4B1B78002B00D1A3E04A4B1B785A
:104A1000002B00D09EE03A4B80229B5C002B45D0BF
:104A2000354B1B78DBB2454A127893421AD0324B91
:104A30001B78DBB23B4A127893421CD02E4B1B787A
:104A4000DBB23F4A127893421ED02B4B1B78DBB26D
:104A50003C4A1278934220D0274B1B78DBB2254A80
:104A60005371B9E0384B1B78002B00D1B4E0214BD7
:104A700008225A71B0E0344B1B78002B00D1ABE018
:104A80001C4B06225A71A7E02F4B1B78002B00D13C
:104A9000A2E0184B03225A719EE02B4B1B78002B8F
:104AA00000D199E0134B04225A7195E0144B7E22F9
:104AB0009B5A002B04D1124B55329B5C002B11D01A
:104AC000224B1B78002B03D1214B9B7B002B03D067
:104AD000084B00225A717FE0074B1B78DBB2054A76
:104AE000537179E0044B1B78DBB2024A537173E0D7
:104AF000C43B0020543C0020AE3B00206F3C002013
:104B0000180600208A3B002030A10010263A002021
:104B1000183A00202E3C0020883900202D3C00202F
:104B2000863900208939002050A10010893B0020DF
:104B3000343A0020363A0020AF3B00208D39002067
:104B40008B39002084390020A23B0020883B0020C4
:104B5000BC390020C14B1B78002B3AD0C04BD3226C
:104B60009B5C002B07D0BF4B1B78022B20D0032B64
:104B700022D0012B18D0BC4B1B78002B24D1B94B71
:104B80001B78002B20D0B94B1B7C002B03D1B84BDA
:104B90001B78002B18D1B74B1B78002B10D0AF4BD4
:104BA0001A78B54B5A7117E0AC4BD23A1A70E2E75B
:104BB000AA4B02221A70DEE7A84B04221A70DAE729
:104BC000AD4B00225A7107E0A44B1A78AA4B5A71D8
:104BD00002E0A94B00225A71A84B1B78002B00D190
:104BE00061E2A74B1B78002B00D178E0A54B1B7826
:104BF000002B57D0A44CA54DA54B18880A2102F0D4
:104C000071FA0100288889B202F06CFA20809E4B6C
:104C10001B88002B00D141E2D9B2974A91711B0A3F
:104C2000D3718F4B82229B5C002B05D0994A13785D
:104C300004210B43DBB21370894B81229B5C002B58
:104C400023D0954B1B88002B00D14DE2914A13785D
:104C5000802149420B43DBB21370904B1B78DBB2CF
:104C60000A2B00D846E28B4A137840210B43DBB273
:104C70001370884B1B783F22934300D140E2854A52
:104C8000137804210B43DBB21370824B1A781F2177
:104C90000A4079498A701A783B210A401A7000222A
:104CA000002339E27E4B1B78002B0BD07D4B19780B
:104CB0008B00C9184900744C744B188802F012FA22
:104CC0002080A4E7784B1B78002BA0D06E4C6F4A55
:104CD000764B1088198802F005FA208097E7744B0C
:104CE0001B78002B39D0734A1278002A35D1012B5A
:104CF00005D0022B1ED0644B00221A8087E7584B48
:104D0000B9229B5C012B09D06B4B198889B25E4C90
:104D10005E4B188802F0E6F9208078E7664B1B8826
:104D20009A009B185900594B188802F0DBF9564B32
:104D300018806CE74A4B2B22985C604B1B885843C9
:104D4000642102F0CFF981B25D4B19804E4C4F4B7C
:104D5000188802F0C7F9208059E75A4B1A785A4B45
:104D60001B789A4223D83F49097800291FD0404830
:104D70000078012803D9554C2478002C17D001392C
:104D8000534B8A0052189B181B5C002B0AD0012B36
:104D900000D03CE73C4C3D4B1888692102F0A2F959
:104DA000208034E7384B394A12881A802FE79A421C
:104DB00007D82C490978002903D02D4909780429FE
:104DC00011D09A421BD8274B1B78002B17D0414B90
:104DD0001B786421594305312C4B188802F092F955
:104DE000294B188013E73C4B1B7860315943053140
:104DF000264B188802F086F9234B188007E7374BBB
:104E0000374A12789B5C0C2B00D900E79B00354A8F
:104E1000D3589F46124BB9229B5C012B07D01A4CEA
:104E20001A4B1888002102F05DF92080EFE6174B3D
:104E30001888002102F056F9134B1880E7E6084B5A
:104E4000B9229B5C012B4FD01B4B198889B20E4CA9
:104E50000E4B188802F046F92080D8E6AF3B0020C0
:104E600018060020D83B0020D63B0020BC3900208B
:104E7000FE060020A23B0020543C0020AC3B00205A
:104E8000383C00203C3C0020443A0020463A0020B8
:104E9000543A00206F3C0020503A0020E23D0020B0
:104EA000C63B00203F3C0020C73B0020483B002081
:104EB000AD3B0020293C0020303A00203A3A002047
:104EC000383A0020D53B0020AA3B0020AB3B002015
:104ED000B43B0020C53B0020C33B00209C3B00208E
:104EE0009A3B002078A100109A4B1B889A009B18CF
:104EF0005900994B188802F0F5F8984B188086E60F
:104F0000974B2B22985C974B1B885843642102F0E7
:104F1000F9F881B2944B1980904C8F4B188802F0AD
:104F2000E1F8208073E68C4B1888904B197802F0DA
:104F3000E9F88A4B18806AE68D4C21888D4B1888D9
:104F40000D22FCF700FE2080854BB9229B5C012BD3
:104F50000BD0824C804D0A2102F0C4F80100288851
:104F600089B202F0BFF8208051E67C4C7A4B1B8856
:104F70000100180002F0B6F8208048E67E4B198840
:104F8000764C754B1888890802F0ACF820803EE614
:104F9000724C714A794B1088198802F0A3F820806E
:104FA00035E66F4BB9229B5C012B0AD0744B197804
:104FB000632912D9684B188802F0A4F8674B18804F
:104FC00025E66F4B1B789900C9184900624B188879
:104FD00002F088F8614B188019E68B0059184900D7
:104FE0005D4B188802F07EF85C4B18800FE6654C2C
:104FF0002188654B18880D22FCF7A5FD2080574CB1
:10500000554D0A2102F06EF80100288889B202F09D
:1050100069F82080FBE5514C4F4A5C4B1088198899
:1050200002F060F82080F2E54D4BB9229B5C012B29
:105030000CD0574B18680A2102F054F881B2474C43
:10504000454B188802F04EF82080E0E5504B198857
:10505000424C414B188802F045F82080D7E53F4C80
:105060003D4A4C4B1088198802F03CF82080CEE570
:10507000494B187864235843FE2102F043F883B269
:10508000013B9BB2454A13809900C9184900324B35
:10509000188802F027F8314B1880B8E5404B0722FA
:1050A0009A71DA71BDE53F4B1888002817D02C4B58
:1050B000D0229B5C002B0CD000010A2102F022F8C8
:1050C00080B2394B1880C2B2354B9A71000AD87140
:1050D000A7E5C2B2324B9A71000AD871A1E5304BF4
:1050E00007229A71DA719CE5304A13787F210B40D0
:1050F0001370B2E52D4A137840218B431370B8E545
:105100002A4A137804218B431370BEE52449C95CF5
:105110008A18D2B20133DBB2072BF7D9204B1A72AF
:10512000234A8A235B00D3581B0E7F221A401E237A
:105130009B1A092B00D870BD0023082BFBD8184AF6
:10514000D25CD2B21A48C021490042500133DBB2CE
:10515000F3E7C046303A0020463A0020443A0020A7
:10516000180600203A3A0020383A0020893B0020F7
:10517000343A0020363A0020923D0020183A0020B0
:10518000DD3B00204A3A00204C3A00201A3A002029
:10519000783B00204E3A0020E23D0020483A0020B3
:1051A000543C0020503A0020423A00206F3C00203E
:1051B00000020048F8B504000F0015001E000B4B5C
:1051C00018888300C0184000094B2822995C01F020
:1051D00099FF0004000C801B7843A91B083101F0E3
:1051E00091FF80B2001980B2F8BDC0463E3A00205F
:1051F0001806002010B5484B7E229B5C002B04D182
:10520000454B02329B5C002B37D0444B1A78072A5F
:1052100003D89300424AD3589F46002079E0414B7F
:105220001B88414A1288FA210120FFF7C3FF70E072
:105230003D4B1B883D4A1288FA21FA20FFF7BAFF3E
:1052400067E03A4B1B883A4A1288FA20FA2140005C
:10525000FFF7B0FF5DE0364B1B88364A1288FA2113
:105260003548FFF7A7FF54E0FA20800051E0FA200C
:1052700080004EE0FA2080004BE0284B1A78092A83
:1052800003D893002D4AD3589F46002041E0254B78
:105290001B88254A1288A7210120FFF78BFF38E0E1
:1052A000214B1B88214A1288A721A720FFF782FFE4
:1052B0002FE01E4B1B881E4A1288A720A721400002
:1052C000FFF778FF25E01A4B1B881A4A1288FA204C
:1052D000A7214000FFF76EFF1BE0164B1B88184A02
:1052E0001288A7211748FFF765FF12E0144B1B88AF
:1052F000154A1288A7211548FFF75CFF09E0FA203C
:10530000800006E0FA20800003E0FA20800000E040
:105310000A2010BD0A20FCE7180600208A3B002066
:10532000ACA100108E390020903900209239002065
:105330009439002096390020EE020000CCA1001024
:10534000983900209B0200009A3900204203000097
:1053500070B5B24B1888642101F0C4FE84B2B04D20
:10536000298804222000FCF7EEFB2880AD4B1B7837
:10537000DBB2012B38D9AC4B00221A70AB4C218820
:1053800089B2AB4B18880322FCF7DDFB2080A94BC8
:105390007E229B5C002B05D1A64B02329B5C002B2E
:1053A00000D172E0A14B1B889BB2A34A12889342A2
:1053B00025D9A24B07221A70A14B1B78002B00D1D4
:1053C000D1E0A04B1A789D4B19788A4200D1C3E0F6
:1053D0009D480378013303709B4B1B78632B00D8E7
:1053E000BEE0984B1970C2E08F4A11784B1CDBB2BB
:1053F0001370142BC2D98E4B1C801170BEE78B4BDF
:105400001B889BB2914A1288934203D98B4B062288
:105410001A70D1E7854B1B889BB28D4A1288934244
:1054200003D9864B05221A70C6E7804B1B889BB2B6
:10543000884A1288934203D9804B04221A70BBE732
:105440007A4B1B889BB2844A1288934203D97B4BC8
:1054500003221A70B0E7754B1B889BB27F4A1288F3
:10546000934203D9754B02221A70A5E76F4B1B8834
:105470009BB27B4A1288934203D9704B01221A7067
:105480009AE76E4B00221A7096E7684B1B889BB216
:10549000744A1288934203D9684B09221A708BE729
:1054A000624B1B889BB2704A1288934203D9634BAC
:1054B00008221A7080E75D4B1B889BB25E4A1288F7
:1054C000934203D95D4B07221A7075E7574B1B882F
:1054D0009BB25E4A1288934203D9584B06221A7037
:1054E0006AE7524B1B889BB2594A1288934203D9F0
:1054F000524B05221A705FE74C4B1B889BB2554AF2
:105500001288934203D94D4B04221A7054E7474B3B
:105510001B889BB2504A1288934203D9474B0322FF
:105520001A7049E7414B1B889BB24C4A1288934240
:1055300003D9424B02221A703EE73C4B1B889BB2B8
:10554000474A1288934203D93C4B01221A7033E731
:105550003A4B00221A702FE73B4B002018703BE7B4
:10556000364B1A7003E0374B344A12781A703F4BAF
:10557000DB7D022B4CD03E4B1B68642058433D4BD7
:10558000198801F0AFFD80B2FA239B00984200D940
:105590001800FA239B001B1A9BB2374A1380284B32
:1055A0001B78002B00D195E0344B1B78002B00D0EA
:1055B00090E0204B84229A5C314B1B789A4200D8B1
:1055C00083E00133DBB22E490B702E4909780029A4
:1055D0000FD1134908882C490988884209D92649DE
:1055E000FA20800008802949002008602549013000
:1055F00008702449097800296CD15208934269D374
:105600001A4BDB7D002B43D01E4B01221A7061E048
:10561000FFF7F0FD184B1880C1E7C0463C3A002068
:105620003A3A0020CC3D0020070700203E3A0020F7
:10563000323A002018060020743900208A3B0020EE
:10564000C43B00208C3B00208B3B002072390020A3
:10565000703900206E3900206C3900206A39002032
:10566000683900207839002076390020BC390020C4
:10567000783B0020143A0020303A0020293C0020DA
:10568000283C0020CE3D00207A3900206C3B0020D1
:10569000FFF7B0FD02009632124B1B889BB29A4274
:1056A00004DB104B1B889633984213DD0D4B18809A
:1056B0001B88FA208000C01A0B4B1B8858436421BA
:1056C00001F010FD094B186004E0094B01221A702B
:1056D000084B1A70034B1B889B08DBB2064AD37336
:1056E00070BDC046303A0020143A00206C3B0020C8
:1056F000293C0020CE3D0020BC39002070B5AC4ACA
:10570000137801331370AB4A137801331370AA4A2C
:10571000137801331370A94A137801331370A84B1F
:105720001B78002B17D170BDA649C95C8A18D2B26C
:105730000133DBB2052BF7D9A24B9B79DBB2934245
:105740000CD09F4B00221A709A4B1B78032BEAD97E
:105750009D4B1A70E7E700220023EBE7954B0020F2
:105760001870984B5A7801210A4098490A70597864
:1057700020242140964C21705B7821218B43954950
:105780000870102B23D00ED8042B00D1A2E0082BD8
:1057900003D18D4B042119701CE0022B1AD18A4BC6
:1057A0000221197016E0402B00D18FE0802B11D11F
:1057B000894BD4215B5C012B00D18FE0022B09D1F6
:1057C000814B04211970834B0339197002E07E4B21
:1057D00000211970814B1B78002B03D1804B7A4933
:1057E000097819707D4B01211970002A00D16AE1F6
:1057F0007C4B1B78002B00D024E17B4B1B7C002BC7
:1058000004D1714B1B78002B00D01BE1774B1B7828
:10581000002B00D016E1764B1B78002B02D1744B85
:1058200001221A70734B01221A70734B1B78002BE4
:1058300026D1714B1A70714A13780133DBB21370A1
:10584000032B02D9130001221A706D4B00221A702B
:105850005D4B1B78012B5DD0042B76D0002B43D001
:10586000664B1B780133DBB2664A1370664A1370CD
:10587000664B01221A70504B00221A704F4B1A705F
:105880004D4B1B78624A11788B420BD24E4B1A78E3
:10589000534B1B789A4200D1D7E05E4B1B78002B0C
:1058A00000D0D2E04F4B01221A70524A00231370ED
:1058B000514A1370514A1370404A1170464A84216C
:1058C000515C3D4A11704F4A1370BEE03E4B0121BE
:1058D00019707FE73C4B032119707BE73A4BD339B2
:1058E00019703C4B197075E7444B1B78022B09D09B
:1058F000032BB5D1484B1A783B4B5A755A7D474B11
:105900005A71ADE7464B1A78374B1A741A7C434BE1
:105910001A70A5E7394B1B78022B0ED0032B9FD1B1
:10592000404B1A78304B1A75197D3C4A91713E49AB
:10593000097899759B7DD37292E73C4B1A782A4B74
:105940005A745A7C354B5A708AE72C4B1B78022BC1
:1059500015D0032B84D1364B1B78092B1FD0354B28
:105960001A78214BDA74DA7C334B1A70334B1B787C
:105970000A2B00D074E7224B01221A7070E72C4BDF
:105980001B78092B00D06BE72A4B1A78164BDA7478
:10599000DA7C294B1A701A4B01221A7060E7284BE7
:1059A0001A78114B5A735A7B1C4B5A72DEE7C04669
:1059B000603C0020D4390020D13B0020D53B0020A2
:1059C000E63B0020183C0020FE060020CD3B0020D6
:1059D0005E3C0020823B002018060020C43B0020D3
:1059E000FF060020D23B0020BC390020383C0020BC
:1059F000293C0020D33B0020D63B0020D83B002090
:105A0000AB3B0020AF3B0020B03B0020AC3B002074
:105A1000AA3B0020873B0020863B0020B43B0020AF
:105A2000203C0020263C0020363C00202C3C00205E
:105A3000CE3B0020D03B0020C33B0020CF3B0020CA
:105A4000833B0020B24B01221A70B24B1B78B24A42
:105A5000127893420DD2B14B1978B14B1B78994211
:105A600014D0B04B1B78002B10D1AF4B1B78002B00
:105A70000CD1AE4900230B70AD490B70A5490A70DB
:105A8000AC4A1370AC4A1370AC4A1370A94B1B7824
:105A9000002B00D191E0AA4B00221A70A94B1B7C6D
:105AA000002B03D0A84B1B78002B04D09B4B1B78FA
:105AB000002B00D081E0994B1A78042A7AD8930001
:105AC000A24AD3589F46924B1B78002B0ED1974B7E
:105AD0001B78002BB9D0954A002313709C4A137091
:105AE0008C4A1370934B01221A70AEE7884B002248
:105AF0001A70AAE78E4B1B78022B10D0032B1BD0F9
:105B0000012B57D18F4A117C924B1970137C59424B
:105B10004B41DBB21374127C8F4B1A704AE0894AF6
:105B2000517D8E4B1970537D59424B41DBB25375F9
:105B3000527D894B5A713DE000F06AFE3AE07C4BA1
:105B40001B78022B10D0032B1BD0012B32D17D4AA6
:105B5000517C834B1970537C59424B41DBB25374D7
:105B6000527C7D4B5A7025E0764A117D7D4B197031
:105B7000137D59424B41DBB21375127D764B9A71FE
:105B800018E0704A917D784B1970937D59424B41D2
:105B9000DBB29375927D704BDA720BE0644B1B782D
:105BA000022B29D0032B2BD0012B21D0654B9A7CC3
:105BB0006E4B1A70604B01221A706D4B7E229B5AFD
:105BC000002B05D16A4B55329B5C002B00D1E2E0E3
:105BD000564B1B78002B00D184E04E4B1A78654B56
:105BE0001B789A4200D2D6E0544B00221A70D2E0C1
:105BF000544B01229A74D9E7524B02229A74D5E78A
:105C0000504B03229A74D1E7494B1B78022B0CD0DE
:105C1000032B0ED0012B04D04A4B9A7C534B1A70A5
:105C2000C8E7484B04229A74F6E7464B05229A745B
:105C3000F2E7444B06229A74EEE73D4B1B78022BA9
:105C40001CD0032B37D0012B04D03E4BDA7C4A4BBF
:105C50001A70AFE73B4BD97C484A1170DB7CDBB252
:105C6000434A6D21525C934202D0364BDA74ECE722
:105C70003F4B6F229A5C334BDA74E6E7404B1B785C
:105C8000092B08D03A4B70229A5C2E4BDA74DA7CDE
:105C90003A4B1A70D9E72B4A517B3A4B1970537B18
:105CA00059424B41DBB25373527B2B4B5A72244BFC
:105CB00001221A70C9E7344B1B780A2B05D02C4BF4
:105CC00071229A5C1F4BDA74BFE71E4A937B5942DC
:105CD0004B41DBB29373927B1F4B9A73184B01229B
:105CE0001A70B2E70B4B1978214B84229A5C214B36
:105CF0001B78D31A99424BDB914249D20C4B1B784B
:105D0000002B45D00D4B214A12781A7043E0C04653
:105D1000D23B0020D53B0020AA3B0020FE060020FD
:105D2000FF060020383C0020873B0020D63B0020A7
:105D3000D83B0020D73B0020AC3B0020AF3B0020ED
:105D4000AB3B0020BC390020823B0020F4A10010B6
:105D5000D33B0020203C0020B43B0020863B0020A9
:105D60002C3C0020263C0020363C0020C53B002077
:105D70001806002082390020C33B0020D03B0020C1
:105D8000CE3B0020833B0020CF3B0020B03B0020D7
:105D9000C74B00221A70C74B00221A70C64B9B7C5F
:105DA000082B2BD0C54B1B78002B04D0C44A12788B
:105DB000002A00D10EE1002B00D121E1C04A127867
:105DC000002A00D11CE1BC4A127C002A00D117E154
:105DD000BC4A1278002A00D012E1BB4B01321A7083
:105DE000BA4B1A70B44B9B7C082B03D0B24B9A7CF5
:105DF000B74B1A70B04B08229A7404E2B14B1B786F
:105E0000002B17D0B24B1A78AB4B9A74AE4A0023D2
:105E10001370AE4A1370AF4A1370AF4A1370AF4A93
:105E20001370AF4A1370AF4A1370AF4BAF4A12787A
:105E30001A70E8E1AC4B00221A70AA4B01321A70BA
:105E4000A54B1B78002B4AD0A54B1A709B4B1B7897
:105E5000002B02D1A64A01211170002B07D0A44BC0
:105E60001B78002B03D0A34B01221A7016E0A14B24
:105E70001B78002B0FD0A04B1C782001201840006D
:105E80008D4D297BC9B201F03DF99C4B18702C73E4
:105E9000974B00221A70974B00221A70984A137879
:105EA0000133DBB21370974A8421525C520893424B
:105EB00007D3934B00221A70934A137859424B41EF
:105EC0001370914B1B78002B04D0904B8B4A1278A7
:105ED0001A7098E1784B1A7B8C4B1A7093E17D4BCA
:105EE0001B78002B4ED08A4B1D888A4B1C882A1B9E
:105EF00093009B181801C01A642101F003F981B2C4
:105F0000611889B2091B844801F0FCF8C0B26A4BE1
:105F10001873824A222111700122DA7200229A75C6
:105F20007F4A13780133DBB21370764A6231525CD8
:105F30005208934207D37A4B00221A70794A137899
:105F400059424B411370774B1B78002B17D0764B7F
:105F50001C805A4B1B78002B02D1654A012111701D
:105F6000002B00D14FE1624B1B78002B00D14AE19E
:105F70005F4B00221A70584B01321A7043E16A4B92
:105F80001D80E6E7514B1B78002B00D13BE1534BC2
:105F900001221A70654B1B88634A13805C4A128881
:105FA000934201D95A4A1380444B1A78002A02D1ED
:105FB0004F4B01211970002A00D124E14C4B1B7872
:105FC000002B00D11FE14A4B00221A70414B0132D5
:105FD0001A7018E1FFF70EF9554B18801B88FA204C
:105FE0008000C01A534B1B885843642101F07AF893
:105FF000514B1860514B01221A703A4B1A7002E152
:106000002D4A927C062A1BD02E4A1278002A00D1F3
:10601000F4E03C498820095C002922D0002B1DD0E7
:1060200027490978002919D045490978002915D14F
:1060300044490978002911D043498738087010E095
:10604000002B07D01E4B1B78002B03D03F4B053A8B
:106050001A70D8E03D4B00221A70D4E03A49002073
:10606000087028496420095C002900D1CBE0002B8E
:1060700070D0134B1B78002B6CD0334B1B78002B4C
:1060800068D10D4B5B7CDBB23149CB5C002B61D01E
:106090002B4B1B78002B00D0B5E0294B01221A7046
:1060A000054B997C0A4A117007229A74ABE0C046EE
:1060B000AF3B0020D73B0020BC3900205E3C0020D5
:1060C000293C0020FE060020383C0020393C0020FE
:1060D000143C00203A3C00203B3C0020C73B002001
:1060E000C63B0020AC3B0020D53B0020AA3B002053
:1060F0005F3C00203C3C0020E03B0020DF3B0020D8
:106100003D3C0020180600203E3C00203F3C002083
:10611000223A0020263A0020A80F0000E43B00208D
:10612000403C0020413C0020483B0020183A002021
:10613000303A0020143A00206C3B0020AD3B002098
:10614000663C0020D23B0020243C0020933B0020F2
:10615000643C0020B54BAF215B5C002B40D0B34BBF
:106160004A395B5C002B3BD0B14B1B78002B4AD0EB
:10617000B04B1B78002B07D1AE4B64391970AE4B76
:1061800000211970AD4B1A70A84BB021595CAA4B75
:106190001B78994218D9A94B1B789A420BD0A84B6F
:1061A0001A78A84B9A74A24A00231370A14A13705C
:1061B000A54A137027E0A54B1B78002BEFD1A14B0C
:1061C0005B7C002B1FD0EAE79D4B1A789D4B9A749D
:1061D000974A00231370974A13709B4A137012E07A
:1061E000934B1B78002B03D0954B1A78954B9A74E0
:1061F0008F4B00221A70944B1A7004E0944B0022CB
:106200001A708B4B1A708F4B9A7C013A914B1C7809
:10621000914B91008A189B18185D904B1870834B16
:10622000D4229B5C002B0CD08D4B1B78002B08D00C
:106230007E4B053A9B5C5843642100F053FF874B2B
:106240001870804B5B7D002B6FD0864B1B78002B2A
:1062500060D0854B1B78002B5CD1844B1B78002BC6
:1062600058D0834B1B78002B54D1824B1B78002BCA
:1062700013D1804A013313707F4A13707F4A137021
:106280007F4B00221A707F4B1A707F4B1C707F4B24
:106290001B78002B28D07E4A13707A4B1B787B4AE0
:1062A000D25C002A02D1764A002111705A1C794929
:1062B00009788A4224DA724A1178754A1278043AC7
:1062C000914203DA704A127894422ED06C4A00212F
:1062D00011700133DBB26B4A13706C4AD35C002B34
:1062E00008D06B4A137020E0504B84229A5C684BB4
:1062F0001A70D2E74D4B84229A5C654B1A7014E0F9
:106300005F4B1A78624B1B789A420ED35A4B00228D
:106310001A700AE0574B1B78002B06D0554A002311
:106320001370554A1370554A1370574B1C703F4BEE
:1063300063229B5C002B0AD04A4B1B78002B03D1B5
:10634000554B1B78002B4BD0544B01221A70544BE9
:10635000DB78DBB2534A1370344AB921525C002A0D
:1063600042D0514AE12189004B4313802F4B8322B5
:106370009B5C002B09D04A4B5B79DBB24B4A137014
:106380005278934201D2494A53702E4B9B7C072B83
:1063900003D02F4B1B78002B2BD0244BAE22985CC4
:1063A0000A2100F09FFEC0B2264B9872254C627CF9
:1063B0003F4B9200D0583F4B198800F093FEC1B27A
:1063C0003D4B19703D4B1878FBF7B7FB3C4B1870F1
:1063D000A37DDBB23B4AD25C3B4B1A70FFF7B1F9AD
:1063E0002E4B00221A70B2E72F4A38494B431380D4
:1063F000BCE7144B5B7CDBB2354AD35C022B06D086
:10640000104A537CDBB22949CB5C9372CEE7314B07
:106410001B78002BF4D0054BAE22985C0A2100F0CB
:1064200061FEC0B2074B9872C0E7C0461806002054
:10643000663C0020613C0020603C0020673C00205E
:10644000143C0020BC390020683C0020D83D0020CE
:10645000243C0020FE060020EC3B0020E93B00200D
:10646000823B0020D23B0020D83B0020293C00206A
:10647000383C0020873B0020883B0020AC3B0020BC
:10648000D53B00209A3B0020FF060020A43B0020C3
:10649000AA3B0020853B0020D33B0020D43B0020BA
:1064A000183C0020DC3B0020463A00206C3C0020D9
:1064B000583B00203C3A00207D3B00207C3B0020E4
:1064C000FC060020E43B0020E13B00209B0500008F
:1064D000343C0020303C002010B54E4B1B78002B84
:1064E00000D188E04C4B49221A704C4B1B885B0052
:1064F0009BB2C72B00D80023D9B2474A51701B0A60
:10650000937047490B880978D170190A1171454871
:10651000018800785071090A9171434A12889342A8
:1065200050D99B1A9BB2D9B23B4AD1711B0A137244
:106530003E490B88DBB253720B881B0A93723C4BAB
:106540001B78D3723B4B1B7813733B4AC7239B00CA
:10655000D05880108005800D03F028FA0022374BB8
:1065600002F0AAFB0022364B02F0A6FB0022354BBC
:1065700002F0A2FB03F092FA03F048FA0022324B39
:1065800002F05CFE0022314B02F0A8F803F086FA1C
:10659000041C002101F032F9002815D12C49201CDF
:1065A00001F040F9002800D0294CFC218905201C6D
:1065B00001F082F901F04AF9C0B2174B587300227A
:1065C000002309E00023AEE70024E7E71249C95C95
:1065D0008A18D2B20133DBB20E2BF7D90E4BDA7325
:1065E0001C4A8A235B00D3581B0E7F221A401E23AD
:1065F0009B1A102B0CD810BD074AD25CD2B215489A
:10660000C021490042500133DBB20F2BF4D9F2E72D
:106610000023FAE7C43B0020443C0020363A002027
:10662000183A00201A3A0020243A0020303A00207C
:106630002E3C0020DD3B00200008034800001440F1
:1066400000408F400000503F00407F400000244049
:1066500000007F430002004810B52E4B1B889BB200
:106660002D4A934204D82B4B1B889BB2092B26D86A
:106670002A4B00221A80FCF7C9FAFDF777F9FCF7DC
:10668000EDFA274B187800010A2100F02BFD254B6D
:106690001870FDF75FFF244B1A78511C1970032303
:1066A0001340022B30D013D8002B18D0012B18D157
:1066B000FDF7D4F9FCF710FCFCF77AFC11E0154B60
:1066C000198889B2194800F00DFD144B1880D2E7E3
:1066D000032B06D1FCF7DAFAFEF73AFE01E0FFF7EA
:1066E0000DF8FDF7BBFB124B9978124A1180D9784F
:1066F000114A11801979114A11805979104A118073
:106700009A79104B1A8010BDFEF778F8FFF7E4FE77
:10671000E7E7C04616070020FFEF00004E3A0020D2
:10672000CC3D0020893B0020903B002090D003000E
:10673000D03D0020A0390020A2390020A43900203B
:10674000A6390020A839002030B589B020220021C8
:10675000684603F091FB2A4B1A682A4B9A4240D0B4
:10676000294B284A1A60294A2221515C19712A2191
:10677000515C880009184800D8806021515A19815D
:106780006221515C99720021D972107E1873907D3C
:1067900058739973D9736931515C19746821515CCC
:1067A00059746E21515C99746D21515CD9746B21BF
:1067B000515C19758721515C5975C321515CD9759C
:1067C0006C21525C9A7569460A00180038C838C2B4
:1067D00038C838C200230222094800F0ABF909B0DA
:1067E00030BD6C4602222100054800F0D7F9064969
:1067F0000B00220031CA31C313CA13C3EFE7C046EE
:1068000000FF0010CCAA0000BC39002018060020B0
:1068100030B589B06C4620220021200003F02CFB0B
:10682000074B2200190029C929C229C929C20023FE
:1068300002222100034800F07DF909B030BDC046B6
:10684000BC39002000FF001010B54A4B00E0013BAE
:10685000002BFCD1FBF71AF9002800D001BEA021C3
:10686000C9050B68444803408022920013430B6023
:1068700042490B6803401A430A60FAF7C7FC00F06C
:106880002BFAFBF759FDFBF787F9FFF75DFFFDF7E3
:10689000DDFC3B4B1B7942333A4A13703A4B0024E0
:1068A0001C7000F0B1F8394B1C70394B01229A6012
:1068B000384B00E0013B002BFCD1374BC622920045
:1068C0009858364908408021C901014399508021D8
:1068D000890419609858324908408021C90301434E
:1068E00099508022D2041A60A023DB050F22DA60BF
:1068F0002C4A116B80235B000B431363254B00E094
:10690000013B002BFCD1284B5A6801210A435A60F5
:10691000264A9A60264B1B6F9BB2264A1380264A52
:1069200013800FE0FDF722FF13E024490B680133C9
:106930000B60214B1A801F4B1B88D31A9BB2204936
:106940008B4211D8184B194A9A601E4B1B78002BAA
:10695000E8D0154B154A9A60154B1A6F92B2164B38
:106960001B889342E7D9E0E7124B1A80FFF774FEC9
:10697000E8E7C046804F1200FFFCFFFF000004481C
:10698000180600208C3D00206E3C00200B070020E4
:1069900000000150C0D4010000E100E0FF00FFFF53
:1069A000FFFF00FF0000014000000240FECAADAB47
:1069B00000020448703C0020723C0020743C00201F
:1069C0006A180000E63B00200323034A1361034AD0
:1069D0001361034A13617047000100500002005028
:1069E0000003005010B5054B1A78054B1A70054B83
:1069F00000221A70FFF7E8FF10BDC046843900205E
:106A00002D3C00200607002070B500F046F80A492A
:106A10004A6A920801231340084A13704D6A0224FF
:106A20002C40234313704C6AA400042121400B43E3
:106A3000137000F036F870BD00010440883D00205E
:106A400010B5FFF7E1FF0D4B196B802252000A438E
:106A50001A631A6B0A490A401A6309E0074B196B5B
:106A6000802252000A431A631A6B05490A401A63CE
:106A7000044B9B68DB07F1D510BDC0460000014008
:106A8000FFFEFFFF000100500230800803D00138F4
:106A9000FDD1C046C046C0467047EFF3108072B6C5
:106AA000704780F310887047064B1A89802149018E
:106AB0000A431A8148215A5A8020000102435A523F
:106AC0007047C0460000054010B50D4A13681B0A08
:106AD000FF210B400B480360126811400A4A116005
